{
  "abi": [
    {
      "inputs": [],
      "stateMutability": "nonpayable",
      "type": "constructor"
    },
    {
      "inputs": [
        {
          "internalType": "uint256",
          "name": "_tokenId",
          "type": "uint256"
        },
        {
          "internalType": "address",
          "name": "_LUNAM",
          "type": "address"
        }
      ],
      "name": "mintTokens",
      "outputs": [],
      "stateMutability": "nonpayable",
      "type": "function"
    }
  ],
  "bytecode": {
    "object": "0x608060405234801561001057600080fd5b5042600155610bbe806100246000396000f3fe608060405234801561001057600080fd5b506004361061002b5760003560e01c806310c5b32814610030575b600080fd5b61004361003e366004610aea565b610045565b005b6040516331a9108f60e11b8152600481018390523390732cdc15b84b1db584c7df1fed7ca8ffbe4b05f33890636352211e906024016020604051808303816000875af1158015610099573d6000803e3d6000fd5b505050506040513d601f19601f820116820180604052508101906100bd9190610b1a565b6001600160a01b0316146101185760405162461bcd60e51b815260206004820152601a60248201527f596f7520646f206e6f742068617665207468697320746f6b656e00000000000060448201526064015b60405180910390fd5b60006101238361018b565b6040516340c10f1960e01b8152336004820152602481018290529091506001600160a01b038316906340c10f1990604401600060405180830381600087803b15801561016e57600080fd5b505af1158015610182573d6000803e3d6000fd5b50505050505050565b60015460009042908111156101f15760008381526020819052604090205460ff16156101c95760405162461bcd60e51b815260040161010f90610b37565b6101d283610798565b506000838152602081905260409020805460ff19166001179055610792565b6001546102019062278d00610b61565b81111561026757600083815260208190526040902054610100900460ff161561023c5760405162461bcd60e51b815260040161010f90610b37565b6000838152602081905260409020805461ff00191661010017905561026083610798565b9392505050565b60015461027790624f1a00610b61565b8111156102d95760008381526020819052604090205462010000900460ff16156102b35760405162461bcd60e51b815260040161010f90610b37565b6000838152602081905260409020805462ff000019166201000017905561026083610798565b6001546102e9906276a700610b61565b81111561034e576000838152602081905260409020546301000000900460ff16156103265760405162461bcd60e51b815260040161010f90610b37565b6000838152602081905260409020805463ff0000001916630100000017905561026083610798565b60015461035e90629e3400610b61565b8111156103c657600083815260208190526040902054640100000000900460ff161561039c5760405162461bcd60e51b815260040161010f90610b37565b6000838152602081905260409020805464ff00000000191664010000000017905561026083610798565b6001546103d69062c5c100610b61565b8111156104415760008381526020819052604090205465010000000000900460ff16156104155760405162461bcd60e51b815260040161010f90610b37565b6000838152602081905260409020805465ff000000000019166501000000000017905561026083610798565b6001546104519062ed4e00610b61565b8111156104bf576000838152602081905260409020546601000000000000900460ff16156104915760405162461bcd60e51b815260040161010f90610b37565b6000838152602081905260409020805466ff0000000000001916660100000000000017905561026083610798565b6001546104d090630114db00610b61565b81111561053957600083815260208190526040902054600160381b900460ff161561050d5760405162461bcd60e51b815260040161010f90610b37565b6000838152602081905260409020805467ff000000000000001916600160381b17905561026083610798565b60015461054a9063013c6800610b61565b8111156105b457600083815260208190526040902054600160401b900460ff16156105875760405162461bcd60e51b815260040161010f90610b37565b6000838152602081905260409020805468ff00000000000000001916600160401b17905561026083610798565b6001546105c590630163f500610b61565b81111561063057600083815260208190526040902054600160481b900460ff16156106025760405162461bcd60e51b815260040161010f90610b37565b6000838152602081905260409020805469ff0000000000000000001916600160481b17905561026083610798565b6001546106419063018b8200610b61565b8111156106a657600083815260208190526040902054600160501b900460ff161561067e5760405162461bcd60e51b815260040161010f90610b37565b6000838152602081905260409020805460ff60501b1916600160501b17905561026083610798565b6001546106b7906301b30f00610b61565b81111561071c57600083815260208190526040902054600160581b900460ff16156106f45760405162461bcd60e51b815260040161010f90610b37565b6000838152602081905260409020805460ff60581b1916600160581b17905561026083610798565b60015461072d906301da9c00610b61565b81111561079257600083815260208190526040902054600160601b900460ff161561076a5760405162461bcd60e51b815260040161010f90610b37565b6000838152602081905260409020805460ff60601b1916600160601b17905561026083610798565b50919050565b6000816001036107b357506953d22b00ac9e83788000919050565b816002036107cc5750690861d1189a0375508000919050565b816003036107e55750691d692e87c8a0da728000919050565b816004036107fe5750691787586bea9a8dcd8000919050565b816005036108175750690bc3ac37bc0c994a0000919050565b8160060361083057506911a582500c9441288000919050565b81600703610849575069083c2bbfe755e3f28000919050565b816008036108625750690bc3ac37bc0c994a0000919050565b8160090361087b57506905e1d61bde064ca50000919050565b81600a03610894575069083c2bbfe755e3f28000919050565b81600b036108ac575068969569e5b38f050000919050565b81600c036108c5575069083c2bbfe755e3f28000919050565b81600d036108de57506901c3c03a239c08488000919050565b81600e036108f75750690eb497421d911ad60000919050565b81600f0361091057506903878077d4b6b5578000919050565b81601003610928575068969569e5b38f050000919050565b81601103610941575069012d2ad3cb671e0a0000919050565b8160120361095a57506905e1d61bde064ca50000919050565b81601303610973575069015a57a557b720a28000919050565b8160140361098c5750690bc3ac37bc0c994a0000919050565b816015036109a45750681e1de36689c4ea0000919050565b816016036109bd57506903878077d4b6b5578000919050565b816017036109d657506911a582500c9441288000919050565b816018036109ee575068d2d12d254874128000919050565b81601903610a0757506901c3c03a239c08488000919050565b81601a03610a20575069054b40b1f852bda00000919050565b81601b03610a3957506908d2c129cd0972f78000919050565b81601c03610a52575069025a55a4094f974d8000919050565b81601d03610a6b57506901c3c03a239c08488000919050565b81601e03610a835750681514eb4513e8e28000919050565b81601f03610a9b575068969569e5b38f050000919050565b81602003610ab4575069025a55a4094f974d8000919050565b81602103610acd57506905e1d61bde064ca50000919050565b919050565b6001600160a01b0381168114610ae757600080fd5b50565b60008060408385031215610afd57600080fd5b823591506020830135610b0f81610ad2565b809150509250929050565b600060208284031215610b2c57600080fd5b815161026081610ad2565b60208082526010908201526f185b1c9958591e481c995919595b595960821b604082015260600190565b80820180821115610b8257634e487b7160e01b600052601160045260246000fd5b9291505056fea2646970667358221220737af3dd21627c3ba0248666f7f54e7fae1bdde69c725634afdc101ba049cd8764736f6c63430008110033",
    "linkReferences": {}
  },
  "methodIdentifiers": {
    "mintTokens(uint256,address)": "10c5b328"
  },
  "id": 5
}